:0400000049EF00F0D4
:10000800F2A203D0D58ECD90F292F0A003D0F0905A
:10001800D59ECD80F2A407D080700FD8C20ED76EBF
:10002800F70ED66EF2949EA007D0807006D80B0EFD
:0A003800CF6EDC0ECE6E9E9011001C
:1000420015C000F016C001F0000E16BEFF0E026EC3
:10005200036E00360090013602360336DE0E0024AF
:10006200F66E000E0120F76E000E0220F86E0900F7
:10007200F5CF83FF154A162A800E006E800E1618E1
:10008200005C02E11550090802E2156A166A1200C4
:100092000F0EC112926A806A956A836A0F0E936E7E
:1000A200F19ED08EF28EF08C9F80F288F086F28ADA
:1000B2009D80F292F090F2949E90C20ED76EF70E4F
:1000C200D66E0B0ECF6EDC0ECE6EF18C060ED56E9A
:0C00D200B00ECD6E156A166AFFD7FFD77E
:1000DE003F0006005B004F0066006D007D000700CC
:0400EE007F00670028
:020000040030CA
:0E000000000C1F1EFF8381FF0FC00FE00F409A
:00000001FF
