:040000004EEF00F0CF
:1000080000C016F001C015F0F2A203D0F292D58E0E
:10001800CD90F0A003D0F090D59ECD80F2A407D06B
:10002800807013D8C20ED76EF70ED66EF2949EA0CB
:1000380007D080700AD80B0ECF6EDC0ECE6E9E9065
:0A00480016C000F015C001F0110011
:100052002BC000F02CC001F0003600900136170EC4
:100062000024E96E000E0120EA6EEECF83FF2B4AD8
:100072002C2A800E006E800E2C18005C02E12B50A0
:0A008200090802E22B6A2C6A120042
:10008C000900F5CFE6FF0006FBE10106F9E11200DD
:10009C0081EC00F00F0EC112F19E956A836AD08E2E
:1000AC00F28EF288F292F28AF294F18CF08CF08655
:1000BC00F090060ED56EB00ECD6E9D80C20ED76E32
:1000CC00F70ED66E0B0ECF6EDC0ECE6E9E909F8012
:1000DC0093809382926A0F0E806E2B6A2C6AFFD7E4
:0200EC00FFD73C
:1001020010EE17F0140E006E010E016EEE0EF66E7A
:0E011200000EF76E000EF86E46EC00F01200C4
:1000EE003F0006005B004F0066006D007D000700BC
:0400FE007F00670018
:020000040030CA
:0E000000000C1F1EFF8381FF0FC00FE00F409A
:00000001FF
